:100E0500E4FDFCC3ED9FEC9E5015E4FBFA0BBB0023
:0F0E1500010AEB64794A70F50DBD00010C80E411
:010E240022AB
:100E5A008F478B488A49894A120B6AE54704FFABD8
:080E6A0048AA49A94A020B6ADB
:100C8900AB07AA067C277D1012036D8F107C277D88
:100C990010AF03AE0212036DAA04AB057C037DE815
:100CA900AF03AE0212036D8F0D7C037DE8AF03AE77
:100CB9000212036DAA04AB057C007D64AF03AE028A
:100CC90012036D8F0E7C007D64AF03AE0212036DBB
:100CD900AA04AB057C007D0AAF03AE0212036D8F37
:0F0CE9000FAE02AF037C007D0A12036D8D112246
:060A88008B088A09890AAF
:100A8E00E4F50BF50CE50C2430F5993099FDC2997F
:100A9E0075993A3099FDC299E50C25E0FFE50B33C7
:100AAE00AB08AA09A90A8F82F5831203CEFFAEF016
:100ABE00C3EE648094805023C3E49FFDE49EFCE566
:100ACE000C25E0FFE50B338F82F583EC8DF01204DD
:100ADE002575992D3099FDC299800875992B3099FD
:100AEE00FDC299E50C25E0FFE50B33AB08AA09A979
:100AFE000A8F82F5831203CEFFAEF0120C89E51039
:100B0E002430F5993099FDC299E50D2430F59930D0
:100B1E0099FDC299E50E2430F5993099FDC299E5FB
:100B2E000F2430F5993099FDC299E5112430F599CD
:100B3E003099FDC29975990D3099FDC29975990A32
:100B4E003099FDC299050CE50C7002050BC3940893
:0B0B5E00E50B648094805003020A93B2
:010B69002269
:060C19008B478A4889495F
:100C1F00E4F54DE54DFD7C00C374079DFFE49CABEF
:100C2F004AAA4BA94C8F82F5831202D9FEC3740FC7
:100C3F009DFDE49C8D82F5831202D9FDEDFFAB473C
:100C4F00AA48A94975F002E54DA4F58285F083EE17
:100C5F008FF012042575F002E54DA429F9EA35F05D
:100C6F00FA1203A3FFAEF07D1112036DEE8FF01297
:090C7F000406054DE54DB4089A88
:010C88002249
:100CF800E4F541F542F543F544F545F546120E4154
:100D0800120DE37B007A0079317F3B120E5A754A47
:100D180000754B00754C317B007A007921120C1953
:100D28007B007A0079211204B57B007A00792112C0
:100D380006867B007A00792112082A7B007A0079DE
:0D0D48002112095C7F647E00120E0580B64A
:030E25007580FFD6
:100E280000000000000000000000000000000000BA
:090E38000000000000000000228F
:0F0EA0007590FF120E25E4F590120E28F58022B2
:0C0EBE00E4F590120E257590FF020E283E
:100E72003000057590FF8003E4F5907580FF120E37
:070E820028E4F580020E28B0
:0E0EAF007580FF120E28AF90E4F580120E2819
:010EBD002212
:100DBF00E4FEEF25E0FF30D7057590FF8003E4F5E3
:100DCF00907580FF120E28E4F580120E280EBE08D3
:040DDF00E1020EAF70
:060D93008B588A59895AB1
:100D99007590FFE4FF7580FF120E28AB58AA59A978
:100DA9005A8F82758300E59012034BE4F580120E89
:050DB900280FBF08E057
:010DBE002212
:100E8900AC07120EA07FD0120DBFAF04120DBFAF79
:070E990005120DBF020EBEA1
:080B6A008F4B8B4C8A4D894E24
:100B7200120EA07FD0120DBFAF4B120DBF120EA0EE
:100B82007FD1120DBF7B007A007950120D93D200F3
:100B9200120E72120EBEE54B30E03EE4FDE4FCABF9
:100BA2004CE54E2DF9E4354DFA1202C025E0120350
:100BB2003974502CF8C000E625E0D000F630D7108A
:100BC200AB4CAA4DA94E8D827583007401120306A7
:100BD2000CBC08CB0DBD08C5227D08E4FCAB4CE57E
:100BE2004E2DF9E4354DFA1202C025E01203397494
:100BF200502CF8C000E625E0D000F630D710AB4C00
:100C0200AA4DA94E8D8275830074011203060CBC95
:060C120008CB0DBD10C56A
:010C180022B9
:100DE300E4FD7F6B120E897D077F19120E891D7F2B
:100DF3001A120E897D187F1B120E897D017F1C023A
:020E03000E8956
:100E4100758921758DFD758BFD759850D2BCD28C3D
:090E5100D28ED2A9D2ACD2AF229C
:080ED6008F993099FDC29922A9
:100D55008F128C138D147F55120ED67F55120ED619
:100D65007F08120ED67F03120ED67F01120ED67F94
:100D7500E8120ED67F03120ED6AF12120ED6AF149E
:0E0D8500E514120ED6E513FF3395E0020ED6EC
:1004B5008B478A48894990000A1203CEFFC3742CE2
:1004C5009FFF740195F090000A8FF01204259000AB
:1004D5000A1203CEC394F4E5F0648094815011AB05
:1004E50047AA48A94990000A740175F0F412042539
:1004F500AB47AA48A94990000A1203CED394C4E594
:10050500F064809489400B90000A740975F0C41258
:100515000425AB47AA48A94990000A1203CEFFC398
:1005250074E29FFD740495F0FC1202067433FBFA25
:10053500F9783F1200FBA804A905AA06AB07E4FF5A
:10054500FE7DE17C4412000612023FAB47AA48A992
:1005550049900008EE8FF01204259000081203CE92
:10056500C394F4E5F0648094815011AB47AA48A97F
:1005750049900008740175F0F4120425AB47AA48A8
:10058500A9499000081203CED394C4E5F064809481
:1005950089400B900008740975F0C41204257599FB
:1005A500553099FDC2997599553099FDC29975993E
:1005B500143099FDC2997599033099FDC2997599C1
:1005C500053099FDC2997599F43099FDC2997599CF
:1005D500013099FDC2997599093099FDC2997599AE
:1005E500DC3099FDC2997599053099FDC2997599C7
:1005F5000A3099FDC299AB47AA48A949900008124B
:1006050003CEF5993099FDC299AB47AA48A94990FF
:1006150000081203CEE5F0FF8F993099FDC2997558
:10062500990B3099FDC2997599DC3099FDC2997580
:1006350099053099FDC29975990C3099FDC299AB10
:1006450047AA48A94990000A1203CEF5993099FDA9
:10065500C299AB47AA48A94990000A1203CEE5F012
:10066500FF8F993099FDC29975990D3099FDC29901
:100675007599AA3099FDC2997599053099FDC29968
:010685002252
:100686008B478A4889499000021203CE248CFFE5E5
:10069600F0340A9000028FF0120425900002120333
:1006A600CEC394F4E5F0648094815011AB47AA4818
:1006B600A949900002740175F0F4120425AB47AA0B
:1006C60048A9499000021203CED394C4E5F0648091
:1006D6009489400B900002740975F0C412042590A9
:1006E60000021203CEFDACF0EC1202067433FBFAE4
:1006F600F9783F1200FBE4FBFA792078C112000A70
:1007060012023FAB47AA48A949EE8FF0120406AB86
:1007160047AA48A9491203A3C394F4E5F064809458
:10072600815008740175F0F4120406AB47AA48A973
:10073600491203A3D394C4E5F064809489400874F5
:100746000975F0C41204067599553099FDC299755C
:1007560099553099FDC2997599143099FDC29975CC
:1007660099033099FDC2997599053099FDC299751D
:1007760099F43099FDC2997599013099FDC2997520
:1007860099013099FDC2997599DC3099FDC2997528
:1007960099053099FDC2997599023099FDC299ABB8
:1007A60047AA48A9491203A3F5993099FDC299AB06
:1007B60047AA48A9491203A3E5F0FF8F993099FD8E
:1007C600C2997599033099FDC2997599DC3099FDE6
:1007D600C2997599053099FDC2997599043099FDAC
:1007E600C299AB47AA48A9499000021203CEF599CF
:1007F6003099FDC299AB47AA48A949900002120355
:10080600CEE5F0FF8F993099FDC29975990530991B
:10081600FDC2997599DC3099FDC299759905309993
:04082600FDC2992254
:10082A009000061203CEFFC374469FFF740595F02D
:10083A009000068FF01204259000061203CEC3948E
:10084A00F4E5F064809481500B900006740175F011
:10085A00F41204259000061203CED394C4E5F06482
:10086A00809489400B900006740975F0C41204251F
:10087A009000041203CEFFC374EA9FFF740B95F035
:10088A00FE9000061203CEFDC3EF9DFFEE95F09099
:10089A0000048FF01204259000041203CEC394F4CE
:1008AA00E5F064809481500B900004740175F0F4B3
:1008BA001204259000041203CED394C4E5F0648098
:1008CA009489400B900004740975F0C412042575CC
:1008DA0099553099FDC2997599553099FDC2997506
:1008EA00990B3099FDC2997599033099FDC2997592
:1008FA0099023099FDC2997599F43099FDC299759A
:10090A0099013099FDC2997599063099FDC299905D
:10091A0000041203CEF5993099FDC2999000041291
:10092A0003CEE5F0FF8F993099FDC299759907308A
:10093A0099FDC2999000061203CEF5993099FDC22D
:10094A00999000061203CEE5F0FF8F993099FDC207
:02095A009922E0
:10095C0090000E1203CE2472FFE5F0340690000EC8
:10096C008FF012042590000E1203CEC394F4E5F020
:10097C0064809481500B90000E740175F0F4120495
:10098C002590000E1203CED394C4E5F064809489B4
:10099C00400B90000E740975F0C412042590000CE5
:1009AC001203CE24D0FFE5F03407FE90000E1203A4
:1009BC00CEFDC3EF9DFFEE95F090000C8FF012046E
:1009CC002590000C1203CEC394F4E5F0648094815E
:1009DC00500B90000C740175F0F412042590000C6F
:1009EC001203CED394C4E5F064809489400B90003C
:1009FC000C740975F0C41204257599553099FDC213
:100A0C00997599553099FDC29975990B3099FDC21C
:100A1C00997599033099FDC2997599023099FDC267
:100A2C00997599F43099FDC2997599013099FDC267
:100A3C009975990E3099FDC29990000C1203CEF560
:100A4C00993099FDC29990000C1203CEE5F0FF8FFE
:100A5C00993099FDC29975990F3099FDC299900002
:100A6C000E1203CEF5993099FDC29990000E120327
:0C0A7C00CEE5F0FF8F993099FDC2992261
:100003000202ABE86480F8E933E83360110460F07E
:10001300ED33EC337009E8FCE9FDEAFEEBFF220463
:1000230060DED3EB9FEA9EE99DE8C2E78CF0C2F75E
:1000330095F0400CE8CCF8E9CDF9EACEFAEBCFFB2A
:1000430012027685D0F05804700320D5B3E804700B
:10005300075002B2D50202B592D5EC0460F7E4CCA6
:10006300C0E0C398F8603B94186008400DD0E0FBF3
:1000730002028DE4FBFAC9FC8028E830E406E4C9F7
:10008300FBE4CAFCE830E305E4C9CACBFCE8540747
:100093006010F8C3E913F9EA13FAEB13FBEC13FC52
:1000A300D8F130F52FC3E49CFCEF9BFFEE9AFEEDF5
:1000B30099FDD0E0FBEF4E4D4C701222DB030202A0
:1000C300B2EC2CFCEF33FFEE33FEED33FDED30E706
:1000D300EB02028DEF2BFFEE3AFEED39FDD0E0FB94
:1000E30050130BBB00030202B5ED13FDEE13FEEF3D
:0800F30013FFEC13FC02028D67
:1000FB00EC4D6011E8497017ED33EC3304600DE4FF
:10010B00FCFFFEFD22E933E8330470F80202AB1268
:10011B00027658046009E4CC248150062850090269
:10012B0002B52840030202B2C0E0EB4A7044B9802A
:10013B0006D0E0FB0202A1EF4E701CBD8008EBFF66
:10014B00EAFEE9FD80EBE98DF0A4FEE5F00201E4A7
:10015B00E9CDF9EAFEEBFFEF89F0A4FCE5F0CE89DF
:10016B00F0A42EFFE435F0CD89F0A42DFEE435F09C
:10017B008067EF4E7005BD80D780C3EF8BF0A4ACCA
:10018B00F0EE8BF0A42CFCE435F0F8EF8AF0A42C05
:10019B00E5F038FCE433CB8DF0A42CFCE5F03BF818
:1001AB00EE8AF0A42CFCE5F038F8E433CF89F0A408
:1001BB002CFCE5F038CF3400CE89F0A42FFFE5F00E
:1001CB003EFEE433C98DF0A42EFEE5F039CD8AF066
:1001DB00A42FFFE5F03EFEE43DFD33D0E0FB5007DE
:1001EB000BBB000F0202B5EC2CFCEF33FFEE33FE22
:0601FB00ED33FD02028D50
:1002010075F020800E75F010800575F0087D007E78
:10021100007F003392D530D503120452EC334010E5
:10022100EF33FFEE33FEED33FDEC33FCD5F0ED2281
:0E023100E5F0247EA2D513CC92E7CDCEFF22BD
:10023F00EDD2E7CD33EC3392D524814006E4FFFEB7
:10024F00FDFC22FCE4CFCECDCC24E0501174FF8016
:10025F00EDC3CC13CCCD13CDCE13CECF13CF0470B3
:07026F00F030D5DE0204525D
:10027600E9D2E7C933E833F892D5EDD2E7CD33ECCE
:0702860033FC5002B2D52247
:10028D00EC30E7100FBF000C0EBE00080DBD0004D2
:10029D000BEB6014A2D5EB13FCED92E7FD2274FF7E
:1002AD00FCFDFEFF22E480F8A2D574FF13FC7D80D7
:0302BD00E480EFEB
:03000000020ECA23
:0C0ECA00787FE4F6D8FD75815A020CF820
:1002C000BB010689828A83E0225002E722BBFE023C
:0902D000E32289828A83E493226F
:1002D900BB010CE58229F582E5833AF583E02250DA
:1002E90006E92582F8E622BBFE06E92582F8E22224
:0D02F900E58229F582E5833AF583E493223E
:10030600BB010FF8E58229F582E5833AF583E028FB
:10031600F0225009C58229F8E58226F622BBFE099D
:10032600C58229F8E22582F222F8EA2583F583E9D7
:03033600932822E7
:10033900BB010689828A83F0225002F722BBFE01A3
:02034900F3229D
:10034B00F8BB010DE58229F582E5833AF583E8F0E8
:10035B00225006E92582C8F622BBFE05E92582C894
:02036B00F2227C
:10036D00C2D5EC30E709B2D5E4C39DFDE49CFCEEAB
:10037D0030E715B2D5E4C39FFFE49EFE120460C3BF
:10038D00E49DFDE49CFC800312046030D507C3E4BA
:06039D009FFFE49EFE221A
:1003A300BB010A89828A83E0F5F0A3E02250068725
:1003B300F009E71922BBFE07E3F5F009E3192289E7
:0B03C300828A83E493F5F0740193221A
:1003CE00BB0110E58229F582E5833AF583E0F5F06D
:1003DE00A3E0225009E92582F886F008E622BBFE4A
:1003EE000AE92582F8E2F5F008E222E5832AF58390
:0803FE00E993F5F0A3E9932255
:10040600BB010A89828A83F0E5F0A3F0225006F741
:0F04160009A7F01922BBFE06F3E5F009F319223E
:10042500F8BB0111E58229F582E5833AF583E8F009
:10043500E5F0A3F0225009E92582C8F608A6F022C6
:0D044500BBFE09E92582C8F2E5F008F222AD
:0E045200C3E49FFFE49EFEE49DFDE49CFC22BB
:10046000BC000BBE0029EF8DF084FFADF022E4CC80
:10047000F875F008EF2FFFEE33FEEC33FCEE9DEC49
:10048000984005FCEE9DFE0FD5F0E9E4CEFD22ED8F
:10049000F8F5F0EE8420D21CFEADF075F008EF2FD9
:1004A000FFED33FD4007985006D5F0F222C398FDCA
:0504B0000FD5F0EA2267
:00000001FF
