:100E1C00E4FDFCC3ED9FEC9E5015E4FBFA0BBB000C
:0F0E2C00010AEB64794A70F50DBD00010C80E4FA
:010E3B002294
:100E71008F418B428A438944120B6AE54104FFABDF
:080E810042AA43A944020B6AD6
:100C8900AB07AA067C277D1012036D8F107C277D88
:100C990010AF03AE0212036DAA04AB057C037DE815
:100CA900AF03AE0212036D8F0D7C037DE8AF03AE77
:100CB9000212036DAA04AB057C007D64AF03AE028A
:100CC90012036D8F0E7C007D64AF03AE0212036DBB
:100CD900AA04AB057C007D0AAF03AE0212036D8F37
:0F0CE9000FAE02AF037C007D0A12036D8D112246
:060A88008B088A09890AAF
:100A8E00E4F50BF50CE50C2430F5993099FDC2997F
:100A9E0075993A3099FDC299E50C25E0FFE50B33C7
:100AAE00AB08AA09A90A8F82F5831203CEFFAEF016
:100ABE00C3EE648094805023C3E49FFDE49EFCE566
:100ACE000C25E0FFE50B338F82F583EC8DF01204DD
:100ADE002575992D3099FDC299800875992B3099FD
:100AEE00FDC299E50C25E0FFE50B33AB08AA09A979
:100AFE000A8F82F5831203CEFFAEF0120C89E51039
:100B0E002430F5993099FDC299E50D2430F59930D0
:100B1E0099FDC299E50E2430F5993099FDC299E5FB
:100B2E000F2430F5993099FDC299E5112430F599CD
:100B3E003099FDC29975990D3099FDC29975990A32
:100B4E003099FDC299050CE50C7002050BC3940893
:0B0B5E00E50B648094805003020A93B2
:010B69002269
:060C19008B418A42894371
:100C1F00E4F547E547FD7C00C374079DFFE49CABFB
:100C2F0044AA45A9468F82F5831202D9FEC3740FD9
:100C3F009DFDE49C8D82F5831202D9FDEDFFAB4142
:100C4F00AA42A94375F002E547A4F58285F083EE29
:100C5F008FF012042575F002E547A429F9EA35F063
:100C6F00FA1203A3FFAEF07D1112036DEE8FF01297
:090C7F0004060547E547B4089A94
:010C88002249
:060CF8008B418A42894392
:100CFE00E4FFFEAB41AA42A9438F828E831202D932
:100D0E00F599209904C29980F90FBF00010EEF6486
:100D1E00084E70DF75990D209904C29980F9759966
:080D2E000A209904C29980F922
:010D3600229A
:100D7500120E58120DFA7B007A0079317F3B120E64
:100D8500717544007545007546317B007A007921FF
:100D9500120C197B007A007921120CF87F647E0011
:050DA500120E1C80D1BC
:030E3C007580FFBF
:100E3F0000000000000000000000000000000000A3
:090E4F0000000000000000002278
:0F0EB7007590FF120E3CE4F590120E3FF580226D
:0C0ED500E4F590120E3C7590FF020E3FF9
:100E89003000057590FF8003E4F5907580FF120E20
:070E99003FE4F580020E3F6B
:0E0EC6007580FF120E3FAF90E4F580120E3FD4
:010ED40022FB
:100DD600E4FEEF25E0FF30D7057590FF8003E4F5CC
:100DE600907580FF120E3FE4F580120E3F0EBE088E
:040DF600E1020EC642
:060DAA008B528A538954AC
:100DB0007590FFE4FF7580FF120E3FAB52AA53A956
:100DC000548F82758300E59012034BE4F580120E78
:050DD0003F0FBF08E029
:010DD50022FB
:100EA000AC07120EB77FD0120DD6AF04120DD6AF1D
:070EB00005120DD6020ED55C
:080B6A008F458B468A4789483C
:100B7200120EB77FD0120DD6AF45120DD6120EB798
:100B82007FD1120DD67B007A00794A120DAAD200CB
:100B9200120E89120ED5E54530E03EE4FDE4FCABD1
:100BA20046E5482DF9E43547FA1202C025E0120362
:100BB20039744A2CF8C000E625E0D000F630D71090
:100BC200AB46AA47A9488D827583007401120306B9
:100BD2000CBC08CB0DBD08C5227D08E4FCAB46E584
:100BE200482DF9E43547FA1202C025E012033974A0
:100BF2004A2CF8C000E625E0D000F630D710AB460C
:100C0200AA47A9488D8275830074011203060CBCA1
:060C120008CB0DBD10C56A
:010C180022B9
:100DFA00E4FD7F6B120EA07D077F19120EA01D7FE6
:100E0A001A120EA07D187F1B120EA07D017F1C02F4
:020E1A000EA028
:100E5800758921758DFD758BFD759850D2BCD28C26
:090E6800D28ED2A9D2ACD2AF2285
:080EED008F993099FDC2992292
:100D37008F128C138D147F55120EED7F55120EED09
:100D47007F08120EED7F03120EED7F01120EED7F6D
:100D5700E8120EED7F03120EEDAF12120EEDAF1477
:0E0D6700E514120EEDE513FF3395E0020EEDDC
:1004B5008B158A16891790000A1203CEFFC3742C78
:1004C5009FFF740195F090000A8FF01204259000AB
:1004D5000A1203CEC394F4E5F0648094815011AB05
:1004E50015AA16A91790000A740175F0F4120425CF
:1004F500AB15AA16A91790000A1203CED394C4E52A
:10050500F064809489400B90000A740975F0C41258
:100515000425AB15AA16A91790000A1203CEFFC32E
:1005250074E29FFD740495F0FC1202067433FBFA25
:10053500F9783F1200FBA804A905AA06AB07E4FF5A
:10054500FE7DE17C4412000612023FAB15AA16A9F6
:1005550017900008EE8FF01204259000081203CEC4
:10056500C394F4E5F0648094815011AB15AA16A9E3
:1005750017900008740175F0F4120425AB15AA163E
:10058500A9179000081203CED394C4E5F0648094B3
:1005950089400B900008740975F0C41204257599FB
:1005A500553099FDC2997599553099FDC29975993E
:1005B500143099FDC2997599033099FDC2997599C1
:1005C500053099FDC2997599F43099FDC2997599CF
:1005D500013099FDC2997599093099FDC2997599AE
:1005E500DC3099FDC2997599053099FDC2997599C7
:1005F5000A3099FDC299AB15AA16A91790000812E1
:1006050003CEF5993099FDC299AB15AA16A9179095
:1006150000081203CEE5F0FF8F993099FDC2997558
:10062500990B3099FDC2997599DC3099FDC2997580
:1006350099053099FDC29975990C3099FDC299AB10
:1006450015AA16A91790000A1203CEF5993099FD3F
:10065500C299AB15AA16A91790000A1203CEE5F0A8
:10066500FF8F993099FDC29975990D3099FDC29901
:100675007599AA3099FDC2997599053099FDC29968
:010685002252
:100686008B188A19891A9000021203CE248CFFE572
:10069600F0340A9000028FF0120425900002120333
:1006A600CEC394F4E5F0648094815011AB18AA1976
:1006B600A91A900002740175F0F4120425AB18AA69
:1006C60019A91A9000021203CED394C4E5F06480EF
:1006D6009489400B900002740975F0C412042590A9
:1006E60000021203CEFDACF0EC1202067433FBFAE4
:1006F600F9783F1200FBE4FBFA792078C112000A70
:1007060012023FAB18AA19A91AEE8FF0120406AB13
:1007160018AA19A91A1203A3C394F4E5F0648094E5
:10072600815008740175F0F4120406AB18AA19A9D1
:100736001A1203A3D394C4E5F06480948940087424
:100746000975F0C41204067599553099FDC299755C
:1007560099553099FDC2997599143099FDC29975CC
:1007660099033099FDC2997599053099FDC299751D
:1007760099F43099FDC2997599013099FDC2997520
:1007860099013099FDC2997599DC3099FDC2997528
:1007960099053099FDC2997599023099FDC299ABB8
:1007A60018AA19A91A1203A3F5993099FDC299AB93
:1007B60018AA19A91A1203A3E5F0FF8F993099FD1B
:1007C600C2997599033099FDC2997599DC3099FDE6
:1007D600C2997599053099FDC2997599043099FDAC
:1007E600C299AB18AA19A91A9000021203CEF5995C
:1007F6003099FDC299AB18AA19A91A9000021203E2
:10080600CEE5F0FF8F993099FDC29975990530991B
:10081600FDC2997599DC3099FDC299759905309993
:04082600FDC2992254
:10082A009000061203CEFFC374469FFF740595F02D
:10083A009000068FF01204259000061203CEC3948E
:10084A00F4E5F064809481500B900006740175F011
:10085A00F41204259000061203CED394C4E5F06482
:10086A00809489400B900006740975F0C41204251F
:10087A009000041203CEFFC374EA9FFF740B95F035
:10088A00FE9000061203CEFDC3EF9DFFEE95F09099
:10089A0000048FF01204259000041203CEC394F4CE
:1008AA00E5F064809481500B900004740175F0F4B3
:1008BA001204259000041203CED394C4E5F0648098
:1008CA009489400B900004740975F0C412042575CC
:1008DA0099553099FDC2997599553099FDC2997506
:1008EA00990B3099FDC2997599033099FDC2997592
:1008FA0099023099FDC2997599F43099FDC299759A
:10090A0099013099FDC2997599063099FDC299905D
:10091A0000041203CEF5993099FDC2999000041291
:10092A0003CEE5F0FF8F993099FDC299759907308A
:10093A0099FDC2999000061203CEF5993099FDC22D
:10094A00999000061203CEE5F0FF8F993099FDC207
:02095A009922E0
:10095C0090000E1203CE2472FFE5F0340690000EC8
:10096C008FF012042590000E1203CEC394F4E5F020
:10097C0064809481500B90000E740175F0F4120495
:10098C002590000E1203CED394C4E5F064809489B4
:10099C00400B90000E740975F0C412042590000CE5
:1009AC001203CE24D0FFE5F03407FE90000E1203A4
:1009BC00CEFDC3EF9DFFEE95F090000C8FF012046E
:1009CC002590000C1203CEC394F4E5F0648094815E
:1009DC00500B90000C740175F0F412042590000C6F
:1009EC001203CED394C4E5F064809489400B90003C
:1009FC000C740975F0C41204257599553099FDC213
:100A0C00997599553099FDC29975990B3099FDC21C
:100A1C00997599033099FDC2997599023099FDC267
:100A2C00997599F43099FDC2997599013099FDC267
:100A3C009975990E3099FDC29990000C1203CEF560
:100A4C00993099FDC29990000C1203CEE5F0FF8FFE
:100A5C00993099FDC29975990F3099FDC299900002
:100A6C000E1203CEF5993099FDC29990000E120327
:0C0A7C00CEE5F0FF8F993099FDC2992261
:100003000202ABE86480F8E933E83360110460F07E
:10001300ED33EC337009E8FCE9FDEAFEEBFF220463
:1000230060DED3EB9FEA9EE99DE8C2E78CF0C2F75E
:1000330095F0400CE8CCF8E9CDF9EACEFAEBCFFB2A
:1000430012027685D0F05804700320D5B3E804700B
:10005300075002B2D50202B592D5EC0460F7E4CCA6
:10006300C0E0C398F8603B94186008400DD0E0FBF3
:1000730002028DE4FBFAC9FC8028E830E406E4C9F7
:10008300FBE4CAFCE830E305E4C9CACBFCE8540747
:100093006010F8C3E913F9EA13FAEB13FBEC13FC52
:1000A300D8F130F52FC3E49CFCEF9BFFEE9AFEEDF5
:1000B30099FDD0E0FBEF4E4D4C701222DB030202A0
:1000C300B2EC2CFCEF33FFEE33FEED33FDED30E706
:1000D300EB02028DEF2BFFEE3AFEED39FDD0E0FB94
:1000E30050130BBB00030202B5ED13FDEE13FEEF3D
:0800F30013FFEC13FC02028D67
:1000FB00EC4D6011E8497017ED33EC3304600DE4FF
:10010B00FCFFFEFD22E933E8330470F80202AB1268
:10011B00027658046009E4CC248150062850090269
:10012B0002B52840030202B2C0E0EB4A7044B9802A
:10013B0006D0E0FB0202A1EF4E701CBD8008EBFF66
:10014B00EAFEE9FD80EBE98DF0A4FEE5F00201E4A7
:10015B00E9CDF9EAFEEBFFEF89F0A4FCE5F0CE89DF
:10016B00F0A42EFFE435F0CD89F0A42DFEE435F09C
:10017B008067EF4E7005BD80D780C3EF8BF0A4ACCA
:10018B00F0EE8BF0A42CFCE435F0F8EF8AF0A42C05
:10019B00E5F038FCE433CB8DF0A42CFCE5F03BF818
:1001AB00EE8AF0A42CFCE5F038F8E433CF89F0A408
:1001BB002CFCE5F038CF3400CE89F0A42FFFE5F00E
:1001CB003EFEE433C98DF0A42EFEE5F039CD8AF066
:1001DB00A42FFFE5F03EFEE43DFD33D0E0FB5007DE
:1001EB000BBB000F0202B5EC2CFCEF33FFEE33FE22
:0601FB00ED33FD02028D50
:1002010075F020800E75F010800575F0087D007E78
:10021100007F003392D530D503120452EC334010E5
:10022100EF33FFEE33FEED33FDEC33FCD5F0ED2281
:0E023100E5F0247EA2D513CC92E7CDCEFF22BD
:10023F00EDD2E7CD33EC3392D524814006E4FFFEB7
:10024F00FDFC22FCE4CFCECDCC24E0501174FF8016
:10025F00EDC3CC13CCCD13CDCE13CECF13CF0470B3
:07026F00F030D5DE0204525D
:10027600E9D2E7C933E833F892D5EDD2E7CD33ECCE
:0702860033FC5002B2D52247
:10028D00EC30E7100FBF000C0EBE00080DBD0004D2
:10029D000BEB6014A2D5EB13FCED92E7FD2274FF7E
:1002AD00FCFDFEFF22E480F8A2D574FF13FC7D80D7
:0302BD00E480EFEB
:03000000020EE10C
:0C0EE100787FE4F6D8FD758154020D7591
:1002C000BB010689828A83E0225002E722BBFE023C
:0902D000E32289828A83E493226F
:1002D900BB010CE58229F582E5833AF583E02250DA
:1002E90006E92582F8E622BBFE06E92582F8E22224
:0D02F900E58229F582E5833AF583E493223E
:10030600BB010FF8E58229F582E5833AF583E028FB
:10031600F0225009C58229F8E58226F622BBFE099D
:10032600C58229F8E22582F222F8EA2583F583E9D7
:03033600932822E7
:10033900BB010689828A83F0225002F722BBFE01A3
:02034900F3229D
:10034B00F8BB010DE58229F582E5833AF583E8F0E8
:10035B00225006E92582C8F622BBFE05E92582C894
:02036B00F2227C
:10036D00C2D5EC30E709B2D5E4C39DFDE49CFCEEAB
:10037D0030E715B2D5E4C39FFFE49EFE120460C3BF
:10038D00E49DFDE49CFC800312046030D507C3E4BA
:06039D009FFFE49EFE221A
:1003A300BB010A89828A83E0F5F0A3E02250068725
:1003B300F009E71922BBFE07E3F5F009E3192289E7
:0B03C300828A83E493F5F0740193221A
:1003CE00BB0110E58229F582E5833AF583E0F5F06D
:1003DE00A3E0225009E92582F886F008E622BBFE4A
:1003EE000AE92582F8E2F5F008E222E5832AF58390
:0803FE00E993F5F0A3E9932255
:10040600BB010A89828A83F0E5F0A3F0225006F741
:0F04160009A7F01922BBFE06F3E5F009F319223E
:10042500F8BB0111E58229F582E5833AF583E8F009
:10043500E5F0A3F0225009E92582C8F608A6F022C6
:0D044500BBFE09E92582C8F2E5F008F222AD
:0E045200C3E49FFFE49EFEE49DFDE49CFC22BB
:10046000BC000BBE0029EF8DF084FFADF022E4CC80
:10047000F875F008EF2FFFEE33FEEC33FCEE9DEC49
:10048000984005FCEE9DFE0FD5F0E9E4CEFD22ED8F
:10049000F8F5F0EE8420D21CFEADF075F008EF2FD9
:1004A000FFED33FD4007985006D5F0F222C398FDCA
:0504B0000FD5F0EA2267
:00000001FF
